:100000000C9446000C9465000C9465000C946500FB
:100010000C9465000C9465000C9465000C946500CC
:100020000C9465000C9465000C9465000C946500BC
:100030000C9465000C9465000C9465000C946500AC
:100040000C9465000C9465000C9465000C9465009C
:100050000C9465000C9465000C9465000C9465008C
:100060000C9465000C9465000C9465000C9465007C
:100070000C9465000C9465000C9465000C9465006C
:100080000C9465000C9465000C94650011241FBE4F
:10009000CFEFD0E4DEBFCDBF11E0A0E0B1E0EEEBEA
:1000A000F1E000E00BBF02C007900D92AE30B10747
:1000B000D9F721E0AEE0B1E001C01D92A031B20756
:1000C000E1F70E94D6000C94DD000C940000CF9361
:1000D000C82F8A3019F48DE00E9467008091C0001B
:1000E00085FFFCCFC093C60080E090E0CF910895DB
:1000F00020B180910E0190910F0182309105F1F0B5
:1001000030F4009759F08130910579F032C0833096
:100110009105E9F08430910519F12BC081E090E060
:1001200090930F0180930E0128C0222311F082E0EA
:1001300090E090930F0180930E011FC0211102C027
:1001400083E090E090930F0180930E0116C022236C
:1001500011F084E090E090930F0180930E010DC0A8
:10016000211102C081E090E090930F0180930E0175
:1001700004C010920F0110920E0180910E01909117
:100180000F018230910559F018F4019761F005C014
:100190008330910531F0049731F080E005C082E0B2
:1001A00003C082E001C081E085B9089511B812B89A
:0E01B00014B812B80E947800FDCFF894FFCF6B
:0E01BE000000000200000000670000000000CA
:00000001FF
